Archive member included to satisfy reference by file (symbol)

d:/at32ide/platform/tools/gcc-arm-none-eabi-10.3-2021.10/bin/../lib/gcc/arm-none-eabi/10.3.1/../../../../arm-none-eabi/lib/thumb/v7e-m+fp/hard\libg_nano.a(lib_a-exit.o)
                              d:/at32ide/platform/tools/gcc-arm-none-eabi-10.3-2021.10/bin/../lib/gcc/arm-none-eabi/10.3.1/../../../../arm-none-eabi/lib/thumb/v7e-m+fp/hard/crt0.o (exit)
d:/at32ide/platform/tools/gcc-arm-none-eabi-10.3-2021.10/bin/../lib/gcc/arm-none-eabi/10.3.1/../../../../arm-none-eabi/lib/thumb/v7e-m+fp/hard\libg_nano.a(lib_a-impure.o)
                              d:/at32ide/platform/tools/gcc-arm-none-eabi-10.3-2021.10/bin/../lib/gcc/arm-none-eabi/10.3.1/../../../../arm-none-eabi/lib/thumb/v7e-m+fp/hard\libg_nano.a(lib_a-exit.o) (_global_impure_ptr)
d:/at32ide/platform/tools/gcc-arm-none-eabi-10.3-2021.10/bin/../lib/gcc/arm-none-eabi/10.3.1/../../../../arm-none-eabi/lib/thumb/v7e-m+fp/hard\libg_nano.a(lib_a-init.o)
                              d:/at32ide/platform/tools/gcc-arm-none-eabi-10.3-2021.10/bin/../lib/gcc/arm-none-eabi/10.3.1/../../../../arm-none-eabi/lib/thumb/v7e-m+fp/hard/crt0.o (__libc_init_array)
d:/at32ide/platform/tools/gcc-arm-none-eabi-10.3-2021.10/bin/../lib/gcc/arm-none-eabi/10.3.1/../../../../arm-none-eabi/lib/thumb/v7e-m+fp/hard\libg_nano.a(lib_a-memset.o)
                              d:/at32ide/platform/tools/gcc-arm-none-eabi-10.3-2021.10/bin/../lib/gcc/arm-none-eabi/10.3.1/../../../../arm-none-eabi/lib/thumb/v7e-m+fp/hard/crt0.o (memset)
d:/at32ide/platform/tools/gcc-arm-none-eabi-10.3-2021.10/bin/../lib/gcc/arm-none-eabi/10.3.1/../../../../arm-none-eabi/lib/thumb/v7e-m+fp/hard\libnosys.a(_exit.o)
                              d:/at32ide/platform/tools/gcc-arm-none-eabi-10.3-2021.10/bin/../lib/gcc/arm-none-eabi/10.3.1/../../../../arm-none-eabi/lib/thumb/v7e-m+fp/hard\libg_nano.a(lib_a-exit.o) (_exit)

Discarded input sections

 .text          0x00000000        0x0 d:/at32ide/platform/tools/gcc-arm-none-eabi-10.3-2021.10/bin/../lib/gcc/arm-none-eabi/10.3.1/thumb/v7e-m+fp/hard/crti.o
 .data          0x00000000        0x0 d:/at32ide/platform/tools/gcc-arm-none-eabi-10.3-2021.10/bin/../lib/gcc/arm-none-eabi/10.3.1/thumb/v7e-m+fp/hard/crti.o
 .bss           0x00000000        0x0 d:/at32ide/platform/tools/gcc-arm-none-eabi-10.3-2021.10/bin/../lib/gcc/arm-none-eabi/10.3.1/thumb/v7e-m+fp/hard/crti.o
 .data          0x00000000        0x4 d:/at32ide/platform/tools/gcc-arm-none-eabi-10.3-2021.10/bin/../lib/gcc/arm-none-eabi/10.3.1/thumb/v7e-m+fp/hard/crtbegin.o
 .rodata        0x00000000       0x24 d:/at32ide/platform/tools/gcc-arm-none-eabi-10.3-2021.10/bin/../lib/gcc/arm-none-eabi/10.3.1/thumb/v7e-m+fp/hard/crtbegin.o
 .text          0x00000000       0x7c d:/at32ide/platform/tools/gcc-arm-none-eabi-10.3-2021.10/bin/../lib/gcc/arm-none-eabi/10.3.1/../../../../arm-none-eabi/lib/thumb/v7e-m+fp/hard/crt0.o
 .data          0x00000000        0x0 d:/at32ide/platform/tools/gcc-arm-none-eabi-10.3-2021.10/bin/../lib/gcc/arm-none-eabi/10.3.1/../../../../arm-none-eabi/lib/thumb/v7e-m+fp/hard/crt0.o
 .bss           0x00000000        0x0 d:/at32ide/platform/tools/gcc-arm-none-eabi-10.3-2021.10/bin/../lib/gcc/arm-none-eabi/10.3.1/../../../../arm-none-eabi/lib/thumb/v7e-m+fp/hard/crt0.o
 .ARM.extab     0x00000000        0x0 d:/at32ide/platform/tools/gcc-arm-none-eabi-10.3-2021.10/bin/../lib/gcc/arm-none-eabi/10.3.1/../../../../arm-none-eabi/lib/thumb/v7e-m+fp/hard/crt0.o
 .ARM.exidx     0x00000000       0x10 d:/at32ide/platform/tools/gcc-arm-none-eabi-10.3-2021.10/bin/../lib/gcc/arm-none-eabi/10.3.1/../../../../arm-none-eabi/lib/thumb/v7e-m+fp/hard/crt0.o
 .ARM.attributes
                0x00000000       0x1c d:/at32ide/platform/tools/gcc-arm-none-eabi-10.3-2021.10/bin/../lib/gcc/arm-none-eabi/10.3.1/../../../../arm-none-eabi/lib/thumb/v7e-m+fp/hard/crt0.o
 .text          0x00000000        0x0 ./user/at32a403a_int.o
 .data          0x00000000        0x0 ./user/at32a403a_int.o
 .bss           0x00000000        0x0 ./user/at32a403a_int.o
 .text          0x00000000        0x0 ./user/at32a403a_wk_config.o
 .data          0x00000000        0x0 ./user/at32a403a_wk_config.o
 .text          0x00000000        0x0 ./user/main.o
Memory Configuration

Name             Origin             Length             Attributes
FLASH            0x08000000         0x00100000         xr
RAM              0x20000000         0x00018000         xrw
SPIM             0x08400000         0x01000000         xr
*default*        0x00000000         0xffffffff

Linker script and memory map

LOAD d:/at32ide/platform/tools/gcc-arm-none-eabi-10.3-2021.10/bin/../lib/gcc/arm-none-eabi/10.3.1/thumb/v7e-m+fp/hard/crti.o
LOAD d:/at32ide/platform/tools/gcc-arm-none-eabi-10.3-2021.10/bin/../lib/gcc/arm-none-eabi/10.3.1/thumb/v7e-m+fp/hard/crtbegin.o
LOAD d:/at32ide/platform/tools/gcc-arm-none-eabi-10.3-2021.10/bin/../lib/gcc/arm-none-eabi/10.3.1/../../../../arm-none-eabi/lib/thumb/v7e-m+fp/hard/crt0.o
LOAD ./user/at32a403a_int.o
LOAD ./user/at32a403a_wk_config.o
LOAD ./user/main.o
LOAD ./firmware/at32a403a_adc.o
LOAD ./firmware/at32a403a_crm.o
LOAD ./firmware/at32a403a_exint.o
LOAD ./firmware/at32a403a_flash.o
LOAD ./firmware/at32a403a_gpio.o
LOAD ./firmware/at32a403a_misc.o
LOAD ./firmware/at32a403a_pwc.o
LOAD ./firmware/at32a403a_tmr.o
LOAD ./firmware/at32a403a_usart.o
LOAD ./cmsis/system_at32a403a.o
LOAD ./startup_at32a403a.o
START GROUP
LOAD d:/at32ide/platform/tools/gcc-arm-none-eabi-10.3-2021.10/bin/../lib/gcc/arm-none-eabi/10.3.1/thumb/v7e-m+fp/hard\libgcc.a
LOAD d:/at32ide/platform/tools/gcc-arm-none-eabi-10.3-2021.10/bin/../lib/gcc/arm-none-eabi/10.3.1/../../../../arm-none-eabi/lib/thumb/v7e-m+fp/hard\libg_nano.a
LOAD d:/at32ide/platform/tools/gcc-arm-none-eabi-10.3-2021.10/bin/../lib/gcc/arm-none-eabi/10.3.1/../../../../arm-none-eabi/lib/thumb/v7e-m+fp/hard\libc_nano.a
END GROUP
START GROUP
LOAD d:/at32ide/platform/tools/gcc-arm-none-eabi-10.3-2021.10/bin/../lib/gcc/arm-none-eabi/10.3.1/thumb/v7e-m+fp/hard\libgcc.a
LOAD d:/at32ide/platform/tools/gcc-arm-none-eabi-10.3-2021.10/bin/../lib/gcc/arm-none-eabi/10.3.1/../../../../arm-none-eabi/lib/thumb/v7e-m+fp/hard\libc_nano.a
LOAD d:/at32ide/platform/tools/gcc-arm-none-eabi-10.3-2021.10/bin/../lib/gcc/arm-none-eabi/10.3.1/../../../../arm-none-eabi/lib/thumb/v7e-m+fp/hard\libnosys.a
END GROUP
START GROUP
LOAD d:/at32ide/platform/tools/gcc-arm-none-eabi-10.3-2021.10/bin/../lib/gcc/arm-none-eabi/10.3.1/thumb/v7e-m+fp/hard\libgcc.a
LOAD d:/at32ide/platform/tools/gcc-arm-none-eabi-10.3-2021.10/bin/../lib/gcc/arm-none-eabi/10.3.1/../../../../arm-none-eabi/lib/thumb/v7e-m+fp/hard\libc_nano.a
LOAD d:/at32ide/platform/tools/gcc-arm-none-eabi-10.3-2021.10/bin/../lib/gcc/arm-none-eabi/10.3.1/../../../../arm-none-eabi/lib/thumb/v7e-m+fp/hard\libnosys.a
END GROUP
LOAD d:/at32ide/platform/tools/gcc-arm-none-eabi-10.3-2021.10/bin/../lib/gcc/arm-none-eabi/10.3.1/thumb/v7e-m+fp/hard/crtend.o
LOAD d:/at32ide/platform/tools/gcc-arm-none-eabi-10.3-2021.10/bin/../lib/gcc/arm-none-eabi/10.3.1/thumb/v7e-m+fp/hard/crtn.o
                0x20018000                _estack = 0x20018000
                0x00000200                _Min_Heap_Size = 0x200
                0x00000400                _Min_Stack_Size = 0x400

.isr_vector     0x08000000      0x184
                0x08000000                . = ALIGN (0x4)
 *(.isr_vector)
 .isr_vector    0x08000000      0x184 ./startup_at32a403a.o
                0x08000000                g_pfnVectors
                0x08000184                . = ALIGN (0x4)

.text           0x08000184     0x1e64
                0x08000184                . = ALIGN (0x4)
 *(.text)
 .text          0x08000184       0x40 d:/at32ide/platform/tools/gcc-arm-none-eabi-10.3-2021.10/bin/../lib/gcc/arm-none-eabi/10.3.1/thumb/v7e-m+fp/hard/crtbegin.o
 *(.text*)
 .text.NMI_Handler
                0x080001c4        0xe ./user/at32a403a_int.o
                0x080001c4                NMI_Handler
 .text.HardFault_Handler
                0x080001d2        0x6 ./user/at32a403a_int.o
                0x080001d2                HardFault_Handler
 .text.MemManage_Handler
                0x080001d8        0x6 ./user/at32a403a_int.o
                0x080001d8                MemManage_Handler
 .text.BusFault_Handler
                0x080001de        0x6 ./user/at32a403a_int.o
                0x080001de                BusFault_Handler
 .text.UsageFault_Handler
                0x080001e4        0x6 ./user/at32a403a_int.o
                0x080001e4                UsageFault_Handler
 .text.SVC_Handler
                0x080001ea        0xe ./user/at32a403a_int.o
                0x080001ea                SVC_Handler
 .text.DebugMon_Handler
                0x080001f8        0xe ./user/at32a403a_int.o
                0x080001f8                DebugMon_Handler
 .text.PendSV_Handler
                0x08000206        0xe ./user/at32a403a_int.o
                0x08000206                PendSV_Handler
 .text.wk_system_clock_config
                0x08000214       0xc0 ./user/at32a403a_wk_config.o
                0x08000214                wk_system_clock_config
 .text.wk_periph_clock_config
                0x080002d4       0x74 ./user/at32a403a_wk_config.o
                0x080002d4                wk_periph_clock_config
 .text.wk_nvic_config
                0x08000348        0xe ./user/at32a403a_wk_config.o
                0x08000348                wk_nvic_config
 *fill*         0x08000356        0x2 
 .text.wk_gpio_config
                0x08000358       0x44 ./user/at32a403a_wk_config.o
                0x08000358                wk_gpio_config
 .text.wk_exint_config
                0x0800039c       0x5c ./user/at32a403a_wk_config.o
                0x0800039c                wk_exint_config
 .text.wk_usart1_init
                0x080003f8       0x94 ./user/at32a403a_wk_config.o
                0x080003f8                wk_usart1_init
 .text.wk_tmr1_init
                0x0800048c      0x108 ./user/at32a403a_wk_config.o
                0x0800048c                wk_tmr1_init
 .text.wk_adc1_init
                0x08000594       0xb4 ./user/at32a403a_wk_config.o
                0x08000594                wk_adc1_init
 .text.delay_init
                0x08000648       0x40 ./user/at32a403a_wk_config.o
                0x08000648                delay_init
 .text.delay_ms
                0x08000688       0x94 ./user/at32a403a_wk_config.o
                0x08000688                delay_ms
 .text.main     0x0800071c       0x98 ./user/main.o
                0x0800071c                main
 .text.adc_enable
                0x080007b4       0x2a ./firmware/at32a403a_adc.o
                0x080007b4                adc_enable
 *fill*         0x080007de        0x2 
 .text.adc_combine_mode_select
                0x080007e0       0x2c ./firmware/at32a403a_adc.o
                0x080007e0                adc_combine_mode_select
 .text.adc_base_default_para_init
                0x0800080c       0x2c ./firmware/at32a403a_adc.o
                0x0800080c                adc_base_default_para_init
 .text.adc_base_config
                0x08000838       0x6a ./firmware/at32a403a_adc.o
                0x08000838                adc_base_config
 .text.adc_calibration_init
                0x080008a2       0x1e ./firmware/at32a403a_adc.o
                0x080008a2                adc_calibration_init
 .text.adc_calibration_init_status_get
                0x080008c0       0x28 ./firmware/at32a403a_adc.o
                0x080008c0                adc_calibration_init_status_get
 .text.adc_calibration_start
                0x080008e8       0x1e ./firmware/at32a403a_adc.o
                0x080008e8                adc_calibration_start
 .text.adc_calibration_status_get
                0x08000906       0x28 ./firmware/at32a403a_adc.o
                0x08000906                adc_calibration_status_get
 .text.adc_ordinary_channel_set
                0x0800092e      0x178 ./firmware/at32a403a_adc.o
                0x0800092e                adc_ordinary_channel_set
 .text.adc_ordinary_conversion_trigger_set
                0x08000aa6       0x6e ./firmware/at32a403a_adc.o
                0x08000aa6                adc_ordinary_conversion_trigger_set
 .text.adc_ordinary_part_mode_enable
                0x08000b14       0x2a ./firmware/at32a403a_adc.o
                0x08000b14                adc_ordinary_part_mode_enable
 *fill*         0x08000b3e        0x2 
 .text.crm_reset
                0x08000b40       0x6c ./firmware/at32a403a_crm.o
                0x08000b40                crm_reset
 .text.crm_flag_get
                0x08000bac       0x50 ./firmware/at32a403a_crm.o
                0x08000bac                crm_flag_get
 .text.crm_hext_stable_wait
                0x08000bfc       0x4a ./firmware/at32a403a_crm.o
                0x08000bfc                crm_hext_stable_wait
 .text.crm_periph_clock_enable
                0x08000c46       0x7c ./firmware/at32a403a_crm.o
                0x08000c46                crm_periph_clock_enable
 *fill*         0x08000cc2        0x2 
 .text.crm_clock_source_enable
                0x08000cc4       0xa8 ./firmware/at32a403a_crm.o
                0x08000cc4                crm_clock_source_enable
 .text.crm_ahb_div_set
                0x08000d6c       0x2c ./firmware/at32a403a_crm.o
                0x08000d6c                crm_ahb_div_set
 .text.crm_apb1_div_set
                0x08000d98       0x2c ./firmware/at32a403a_crm.o
                0x08000d98                crm_apb1_div_set
 .text.crm_apb2_div_set
                0x08000dc4       0x2c ./firmware/at32a403a_crm.o
                0x08000dc4                crm_apb2_div_set
 .text.crm_adc_clock_div_set
                0x08000df0       0x44 ./firmware/at32a403a_crm.o
                0x08000df0                crm_adc_clock_div_set
 .text.crm_sysclk_switch
                0x08000e34       0x54 ./firmware/at32a403a_crm.o
                0x08000e34                crm_sysclk_switch
 .text.crm_sysclk_switch_status_get
                0x08000e88       0x1c ./firmware/at32a403a_crm.o
                0x08000e88                crm_sysclk_switch_status_get
 .text.crm_clocks_freq_get
                0x08000ea4      0x1d4 ./firmware/at32a403a_crm.o
                0x08000ea4                crm_clocks_freq_get
 .text.exint_default_para_init
                0x08001078       0x2c ./firmware/at32a403a_exint.o
                0x08001078                exint_default_para_init
 .text.exint_init
                0x080010a4       0xc8 ./firmware/at32a403a_exint.o
                0x080010a4                exint_init
 .text.gpio_init
                0x0800116c      0x138 ./firmware/at32a403a_gpio.o
                0x0800116c                gpio_init
 .text.gpio_default_para_init
                0x080012a4       0x34 ./firmware/at32a403a_gpio.o
                0x080012a4                gpio_default_para_init
 .text.gpio_bits_reset
                0x080012d8       0x1e ./firmware/at32a403a_gpio.o
                0x080012d8                gpio_bits_reset
 .text.gpio_pin_remap_config
                0x080012f6       0x98 ./firmware/at32a403a_gpio.o
                0x080012f6                gpio_pin_remap_config
 *fill*         0x0800138e        0x2 
 .text.gpio_exint_line_config
                0x08001390       0xf8 ./firmware/at32a403a_gpio.o
                0x08001390                gpio_exint_line_config
 .text.__NVIC_SetPriorityGrouping
                0x08001488       0x48 ./firmware/at32a403a_misc.o
 .text.nvic_priority_group_config
                0x080014d0       0x1a ./firmware/at32a403a_misc.o
                0x080014d0                nvic_priority_group_config
 *fill*         0x080014ea        0x2 
 .text.systick_clock_source_config
                0x080014ec       0x3c ./firmware/at32a403a_misc.o
                0x080014ec                systick_clock_source_config
 .text.pwc_battery_powered_domain_access
                0x08001528       0x2c ./firmware/at32a403a_pwc.o
                0x08001528                pwc_battery_powered_domain_access
 .text.tmr_counter_enable
                0x08001554       0x2a ./firmware/at32a403a_tmr.o
                0x08001554                tmr_counter_enable
 .text.tmr_base_init
                0x0800157e       0x2e ./firmware/at32a403a_tmr.o
                0x0800157e                tmr_base_init
 .text.tmr_clock_source_div_set
                0x080015ac       0x2a ./firmware/at32a403a_tmr.o
                0x080015ac                tmr_clock_source_div_set
 .text.tmr_cnt_dir_set
                0x080015d6       0x2a ./firmware/at32a403a_tmr.o
                0x080015d6                tmr_cnt_dir_set
 .text.tmr_repetition_counter_set
                0x08001600       0x24 ./firmware/at32a403a_tmr.o
                0x08001600                tmr_repetition_counter_set
 .text.tmr_output_channel_config
                0x08001624      0x204 ./firmware/at32a403a_tmr.o
                0x08001624                tmr_output_channel_config
 .text.tmr_channel_value_set
                0x08001828       0x6c ./firmware/at32a403a_tmr.o
                0x08001828                tmr_channel_value_set
 .text.tmr_period_buffer_enable
                0x08001894       0x2a ./firmware/at32a403a_tmr.o
                0x08001894                tmr_period_buffer_enable
 *fill*         0x080018be        0x2 
 .text.tmr_output_channel_buffer_enable
                0x080018c0       0x9c ./firmware/at32a403a_tmr.o
                0x080018c0                tmr_output_channel_buffer_enable
 .text.tmr_output_channel_immediately_set
                0x0800195c       0x9c ./firmware/at32a403a_tmr.o
                0x0800195c                tmr_output_channel_immediately_set
 .text.tmr_primary_mode_select
                0x080019f8       0x2a ./firmware/at32a403a_tmr.o
                0x080019f8                tmr_primary_mode_select
 .text.tmr_sub_sync_mode_set
                0x08001a22       0x2a ./firmware/at32a403a_tmr.o
                0x08001a22                tmr_sub_sync_mode_set
 .text.tmr_output_enable
                0x08001a4c       0x2a ./firmware/at32a403a_tmr.o
                0x08001a4c                tmr_output_enable
 .text.tmr_brkdt_config
                0x08001a76       0x9c ./firmware/at32a403a_tmr.o
                0x08001a76                tmr_brkdt_config
 *fill*         0x08001b12        0x2 
 .text.usart_init
                0x08001b14       0xe0 ./firmware/at32a403a_usart.o
                0x08001b14                usart_init
 .text.usart_parity_selection_config
                0x08001bf4       0x6a ./firmware/at32a403a_usart.o
                0x08001bf4                usart_parity_selection_config
 .text.usart_enable
                0x08001c5e       0x2a ./firmware/at32a403a_usart.o
                0x08001c5e                usart_enable
 .text.usart_transmitter_enable
                0x08001c88       0x2a ./firmware/at32a403a_usart.o
                0x08001c88                usart_transmitter_enable
 .text.usart_receiver_enable
                0x08001cb2       0x2a ./firmware/at32a403a_usart.o
                0x08001cb2                usart_receiver_enable
 .text.usart_hardware_flow_control_set
                0x08001cdc       0x86 ./firmware/at32a403a_usart.o
                0x08001cdc                usart_hardware_flow_control_set
 *fill*         0x08001d62        0x2 
 .text.SystemInit
                0x08001d64       0x88 ./cmsis/system_at32a403a.o
                0x08001d64                SystemInit
 .text.system_core_clock_update
                0x08001dec      0x150 ./cmsis/system_at32a403a.o
                0x08001dec                system_core_clock_update
 .text.Reset_Handler
                0x08001f3c       0x48 ./startup_at32a403a.o
                0x08001f3c                Reset_Handler
 .text.Default_Handler
                0x08001f84        0x2 ./startup_at32a403a.o
                0x08001f84                SDIO1_IRQHandler
                0x08001f84                XMC_IRQHandler
                0x08001f84                EXINT2_IRQHandler
                0x08001f84                USBFS_L_CAN1_RX0_IRQHandler
                0x08001f84                UART8_IRQHandler
                0x08001f84                SPI4_IRQHandler
                0x08001f84                I2C2_EVT_IRQHandler
                0x08001f84                TMR1_OVF_TMR10_IRQHandler
                0x08001f84                TMR8_TRG_HALL_TMR14_IRQHandler
                0x08001f84                USBFS_H_CAN1_TX_IRQHandler
                0x08001f84                I2C1_ERR_IRQHandler
                0x08001f84                EXINT9_5_IRQHandler
                0x08001f84                SysTick_Handler
                0x08001f84                EMAC_IRQHandler
                0x08001f84                CAN2_RX1_IRQHandler
                0x08001f84                TMR5_GLOBAL_IRQHandler
                0x08001f84                SDIO2_IRQHandler
                0x08001f84                ADC1_2_IRQHandler
                0x08001f84                SPI1_IRQHandler
                0x08001f84                TAMPER_IRQHandler
                0x08001f84                CAN2_RX0_IRQHandler
                0x08001f84                DMA2_Channel2_IRQHandler
                0x08001f84                DMA1_Channel4_IRQHandler
                0x08001f84                TMR8_CH_IRQHandler
                0x08001f84                USART6_IRQHandler
                0x08001f84                EXINT0_IRQHandler
                0x08001f84                USART3_IRQHandler
                0x08001f84                RTC_IRQHandler
                0x08001f84                DMA1_Channel7_IRQHandler
                0x08001f84                CAN1_RX1_IRQHandler
                0x08001f84                UART5_IRQHandler
                0x08001f84                ADC3_IRQHandler
                0x08001f84                ACC_IRQHandler
                0x08001f84                EMAC_WKUP_IRQHandler
                0x08001f84                DMA2_Channel1_IRQHandler
                0x08001f84                EXINT3_IRQHandler
                0x08001f84                DMA1_Channel6_IRQHandler
                0x08001f84                UART4_IRQHandler
                0x08001f84                DMA1_Channel1_IRQHandler
                0x08001f84                Default_Handler
                0x08001f84                USBFS_MAPH_IRQHandler
                0x08001f84                TMR3_GLOBAL_IRQHandler
                0x08001f84                TMR7_GLOBAL_IRQHandler
                0x08001f84                CAN1_SE_IRQHandler
                0x08001f84                CAN2_TX_IRQHandler
                0x08001f84                I2C3_ERR_IRQHandler
                0x08001f84                SPI3_I2S3EXT_IRQHandler
                0x08001f84                TMR1_BRK_TMR9_IRQHandler
                0x08001f84                USBFS_MAPL_IRQHandler
                0x08001f84                TMR8_BRK_TMR12_IRQHandler
                0x08001f84                TMR1_TRG_HALL_TMR11_IRQHandler
                0x08001f84                DMA1_Channel5_IRQHandler
                0x08001f84                TMR4_GLOBAL_IRQHandler
                0x08001f84                EXINT4_IRQHandler
                0x08001f84                CAN2_SE_IRQHandler
                0x08001f84                DMA2_Channel6_7_IRQHandler
                0x08001f84                PVM_IRQHandler
                0x08001f84                I2C3_EVT_IRQHandler
                0x08001f84                DMA1_Channel3_IRQHandler
                0x08001f84                I2C1_EVT_IRQHandler
                0x08001f84                TMR8_OVF_TMR13_IRQHandler
                0x08001f84                TMR6_GLOBAL_IRQHandler
                0x08001f84                EXINT1_IRQHandler
                0x08001f84                RTCAlarm_IRQHandler
                0x08001f84                DMA2_Channel4_5_IRQHandler
                0x08001f84                UART7_IRQHandler
                0x08001f84                USART2_IRQHandler
                0x08001f84                DMA1_Channel2_IRQHandler
                0x08001f84                TMR2_GLOBAL_IRQHandler
                0x08001f84                FLASH_IRQHandler
                0x08001f84                SPI2_I2S2EXT_IRQHandler
                0x08001f84                I2C2_ERR_IRQHandler
                0x08001f84                USBFSWakeUp_IRQHandler
                0x08001f84                USART1_IRQHandler
                0x08001f84                TMR1_CH_IRQHandler
                0x08001f84                CRM_IRQHandler
                0x08001f84                EXINT15_10_IRQHandler
                0x08001f84                WWDT_IRQHandler
                0x08001f84                DMA2_Channel3_IRQHandler
 *fill*         0x08001f86        0x2 
 .text.__libc_init_array
                0x08001f88       0x48 d:/at32ide/platform/tools/gcc-arm-none-eabi-10.3-2021.10/bin/../lib/gcc/arm-none-eabi/10.3.1/../../../../arm-none-eabi/lib/thumb/v7e-m+fp/hard\libg_nano.a(lib_a-init.o)
                0x08001f88                __libc_init_array
 *(.glue_7)
 .glue_7        0x08001fd0        0x0 linker stubs
 *(.glue_7t)
 .glue_7t       0x08001fd0        0x0 linker stubs
 *(.eh_frame)
 .eh_frame      0x08001fd0        0x0 d:/at32ide/platform/tools/gcc-arm-none-eabi-10.3-2021.10/bin/../lib/gcc/arm-none-eabi/10.3.1/thumb/v7e-m+fp/hard/crtbegin.o
 *(.init)
 .init          0x08001fd0        0x4 d:/at32ide/platform/tools/gcc-arm-none-eabi-10.3-2021.10/bin/../lib/gcc/arm-none-eabi/10.3.1/thumb/v7e-m+fp/hard/crti.o
                0x08001fd0                _init
 .init          0x08001fd4        0x8 d:/at32ide/platform/tools/gcc-arm-none-eabi-10.3-2021.10/bin/../lib/gcc/arm-none-eabi/10.3.1/thumb/v7e-m+fp/hard/crtn.o
 *(.fini)
 .fini          0x08001fdc        0x4 d:/at32ide/platform/tools/gcc-arm-none-eabi-10.3-2021.10/bin/../lib/gcc/arm-none-eabi/10.3.1/thumb/v7e-m+fp/hard/crti.o
                0x08001fdc                _fini
 .fini          0x08001fe0        0x8 d:/at32ide/platform/tools/gcc-arm-none-eabi-10.3-2021.10/bin/../lib/gcc/arm-none-eabi/10.3.1/thumb/v7e-m+fp/hard/crtn.o
                0x08001fe8                . = ALIGN (0x4)
                0x08001fe8                _etext = .

.vfp11_veneer   0x08001fe8        0x0
 .vfp11_veneer  0x08001fe8        0x0 linker stubs

.v4_bx          0x08001fe8        0x0
 .v4_bx         0x08001fe8        0x0 linker stubs

.iplt           0x08001fe8        0x0
 .iplt          0x08001fe8        0x0 d:/at32ide/platform/tools/gcc-arm-none-eabi-10.3-2021.10/bin/../lib/gcc/arm-none-eabi/10.3.1/thumb/v7e-m+fp/hard/crtbegin.o

.rodata         0x08001fe8       0x38
                0x08001fe8                . = ALIGN (0x4)
 *(.rodata)
 .rodata        0x08001fe8       0x28 ./firmware/at32a403a_crm.o
 .rodata        0x08002010       0x10 ./cmsis/system_at32a403a.o
 *(.rodata*)
                0x08002020                . = ALIGN (0x4)

.rel.dyn        0x08002020        0x0
 .rel.iplt      0x08002020        0x0 d:/at32ide/platform/tools/gcc-arm-none-eabi-10.3-2021.10/bin/../lib/gcc/arm-none-eabi/10.3.1/thumb/v7e-m+fp/hard/crtbegin.o

.ARM.extab
 *(.ARM.extab* .gnu.linkonce.armextab.*)

.ARM            0x08002020        0x0
                0x08002020                __exidx_start = .
 *(.ARM.exidx*)
                0x08002020                __exidx_end = .

.preinit_array  0x08002020        0x0
                0x08002020                PROVIDE (__preinit_array_start = .)
 *(.preinit_array*)
                0x08002020                PROVIDE (__preinit_array_end = .)

.init_array     0x08002020        0x4
                0x08002020                PROVIDE (__init_array_start = .)
 *(SORT_BY_NAME(.init_array.*))
 *(.init_array*)
 .init_array    0x08002020        0x4 d:/at32ide/platform/tools/gcc-arm-none-eabi-10.3-2021.10/bin/../lib/gcc/arm-none-eabi/10.3.1/thumb/v7e-m+fp/hard/crtbegin.o
                0x08002024                PROVIDE (__init_array_end = .)

.fini_array     0x08002024        0x4
                [!provide]                PROVIDE (__fini_array_start = .)
 *(SORT_BY_NAME(.fini_array.*))
 *(.fini_array*)
 .fini_array    0x08002024        0x4 d:/at32ide/platform/tools/gcc-arm-none-eabi-10.3-2021.10/bin/../lib/gcc/arm-none-eabi/10.3.1/thumb/v7e-m+fp/hard/crtbegin.o
                [!provide]                PROVIDE (__fini_array_end = .)
                0x08002028                _sidata = LOADADDR (.data)

.data           0x20000000        0x4 load address 0x08002028
                0x20000000                . = ALIGN (0x4)
                0x20000000                _sdata = .
 *(.data)
 .data          0x20000000        0x4 ./cmsis/system_at32a403a.o
                0x20000000                system_core_clock
 *(.data*)
                0x20000004                . = ALIGN (0x4)
                0x20000004                _edata = .
                0x08400000                _spim_init_base = LOADADDR (.spim)
                0x00000000                _spim_init_length = SIZEOF (.spim)

.igot.plt       0x20000004        0x0 load address 0x0800202c
 .igot.plt      0x20000004        0x0 d:/at32ide/platform/tools/gcc-arm-none-eabi-10.3-2021.10/bin/../lib/gcc/arm-none-eabi/10.3.1/thumb/v7e-m+fp/hard/crtbegin.o

.spim           0x08400000        0x0
                0x08400000                . = ALIGN (0x4)
                0x08400000                _spim_start = .
 *(.spim)
 *(.spim*)
                0x08400000                . = ALIGN (0x4)
                0x08400000                _spim_end = .
                0x08400000                . = ALIGN (0x4)

.bss            0x20000004       0x28
                0x20000004                _sbss = .
                0x20000004                __bss_start__ = _sbss
 *(.bss)
 .bss           0x20000004       0x1c d:/at32ide/platform/tools/gcc-arm-none-eabi-10.3-2021.10/bin/../lib/gcc/arm-none-eabi/10.3.1/thumb/v7e-m+fp/hard/crtbegin.o
 .bss           0x20000020        0x8 ./user/at32a403a_wk_config.o
 .bss           0x20000028        0x4 ./user/main.o
                0x20000028                a
 *(.bss*)
 *(COMMON)
                0x2000002c                . = ALIGN (0x4)
                0x2000002c                _ebss = .
                0x2000002c                __bss_end__ = _ebss

._user_heap_stack
                0x2000002c      0x604
                0x20000030                . = ALIGN (0x8)
 *fill*         0x2000002c        0x4 
                [!provide]                PROVIDE (end = .)
                [!provide]                PROVIDE (_end = .)
                0x20000230                . = (. + _Min_Heap_Size)
 *fill*         0x20000030      0x200 
                0x20000630                . = (. + _Min_Stack_Size)
 *fill*         0x20000230      0x400 
                0x20000630                . = ALIGN (0x8)

/DISCARD/
 libc.a(*)
 libm.a(*)
 libgcc.a(*)

.ARM.attributes
                0x00000000       0x30
 *(.ARM.attributes)
 .ARM.attributes
                0x00000000       0x1e d:/at32ide/platform/tools/gcc-arm-none-eabi-10.3-2021.10/bin/../lib/gcc/arm-none-eabi/10.3.1/thumb/v7e-m+fp/hard/crti.o
 .ARM.attributes
                0x0000001e       0x34 d:/at32ide/platform/tools/gcc-arm-none-eabi-10.3-2021.10/bin/../lib/gcc/arm-none-eabi/10.3.1/thumb/v7e-m+fp/hard/crtbegin.o
 .ARM.attributes
                0x00000052       0x34 ./user/at32a403a_int.o
 .ARM.attributes
                0x00000086       0x34 ./user/at32a403a_wk_config.o
 .ARM.attributes
                0x000000ba       0x34 ./user/main.o
 .ARM.attributes
                0x000000ee       0x34 ./firmware/at32a403a_adc.o
 .ARM.attributes
                0x00000122       0x34 ./firmware/at32a403a_crm.o
 .ARM.attributes
                0x00000156       0x34 ./firmware/at32a403a_exint.o
 .ARM.attributes
                0x0000018a       0x34 ./firmware/at32a403a_gpio.o
 .ARM.attributes
                0x000001be       0x34 ./firmware/at32a403a_misc.o
 .ARM.attributes
                0x000001f2       0x34 ./firmware/at32a403a_pwc.o
 .ARM.attributes
                0x00000226       0x34 ./firmware/at32a403a_tmr.o
 .ARM.attributes
                0x0000025a       0x34 ./firmware/at32a403a_usart.o
 .ARM.attributes
                0x0000028e       0x34 ./cmsis/system_at32a403a.o
 .ARM.attributes
                0x000002c2       0x21 ./startup_at32a403a.o
 .ARM.attributes
                0x000002e3       0x34 d:/at32ide/platform/tools/gcc-arm-none-eabi-10.3-2021.10/bin/../lib/gcc/arm-none-eabi/10.3.1/../../../../arm-none-eabi/lib/thumb/v7e-m+fp/hard\libg_nano.a(lib_a-init.o)
 .ARM.attributes
                0x00000317       0x1e d:/at32ide/platform/tools/gcc-arm-none-eabi-10.3-2021.10/bin/../lib/gcc/arm-none-eabi/10.3.1/thumb/v7e-m+fp/hard/crtn.o
OUTPUT(AT32A403AVGT7_WorkBench.elf elf32-littlearm)
LOAD linker stubs
LOAD d:/at32ide/platform/tools/gcc-arm-none-eabi-10.3-2021.10/bin/../lib/gcc/arm-none-eabi/10.3.1/../../../../arm-none-eabi/lib/thumb/v7e-m+fp/hard\libc.a
LOAD d:/at32ide/platform/tools/gcc-arm-none-eabi-10.3-2021.10/bin/../lib/gcc/arm-none-eabi/10.3.1/../../../../arm-none-eabi/lib/thumb/v7e-m+fp/hard\libm.a
LOAD d:/at32ide/platform/tools/gcc-arm-none-eabi-10.3-2021.10/bin/../lib/gcc/arm-none-eabi/10.3.1/thumb/v7e-m+fp/hard\libgcc.a

.debug_info     0x00000000    0x10c52
 .debug_info    0x00000000       0xfc ./user/at32a403a_int.o
 .debug_info    0x000000fc     0x3902 ./user/at32a403a_wk_config.o
 .debug_info    0x000039fe      0xfda ./user/main.o
 .debug_info    0x000049d8     0x1977 ./firmware/at32a403a_adc.o
 .debug_info    0x0000634f     0x24a0 ./firmware/at32a403a_crm.o
 .debug_info    0x000087ef      0x54c ./firmware/at32a403a_exint.o
 .debug_info    0x00008d3b     0x1f29 ./firmware/at32a403a_gpio.o
 .debug_info    0x0000ac64      0x9e9 ./firmware/at32a403a_misc.o
 .debug_info    0x0000b64d      0x81d ./firmware/at32a403a_pwc.o
 .debug_info    0x0000be6a     0x26d3 ./firmware/at32a403a_tmr.o
 .debug_info    0x0000e53d     0x10ac ./firmware/at32a403a_usart.o
 .debug_info    0x0000f5e9     0x1647 ./cmsis/system_at32a403a.o
 .debug_info    0x00010c30       0x22 ./startup_at32a403a.o

.debug_abbrev   0x00000000     0x15cd
 .debug_abbrev  0x00000000       0x44 ./user/at32a403a_int.o
 .debug_abbrev  0x00000044      0x287 ./user/at32a403a_wk_config.o
 .debug_abbrev  0x000002cb      0x132 ./user/main.o
 .debug_abbrev  0x000003fd      0x23e ./firmware/at32a403a_adc.o
 .debug_abbrev  0x0000063b      0x229 ./firmware/at32a403a_crm.o
 .debug_abbrev  0x00000864      0x17b ./firmware/at32a403a_exint.o
 .debug_abbrev  0x000009df      0x215 ./firmware/at32a403a_gpio.o
 .debug_abbrev  0x00000bf4      0x245 ./firmware/at32a403a_misc.o
 .debug_abbrev  0x00000e39      0x1ce ./firmware/at32a403a_pwc.o
 .debug_abbrev  0x00001007      0x1e5 ./firmware/at32a403a_tmr.o
 .debug_abbrev  0x000011ec      0x248 ./firmware/at32a403a_usart.o
 .debug_abbrev  0x00001434      0x187 ./cmsis/system_at32a403a.o
 .debug_abbrev  0x000015bb       0x12 ./startup_at32a403a.o

.debug_aranges  0x00000000      0x880
 .debug_aranges
                0x00000000       0x58 ./user/at32a403a_int.o
 .debug_aranges
                0x00000058       0x68 ./user/at32a403a_wk_config.o
 .debug_aranges
                0x000000c0       0x20 ./user/main.o
 .debug_aranges
                0x000000e0      0x130 ./firmware/at32a403a_adc.o
 .debug_aranges
                0x00000210      0x140 ./firmware/at32a403a_crm.o
 .debug_aranges
                0x00000350       0x60 ./firmware/at32a403a_exint.o
 .debug_aranges
                0x000003b0       0xa8 ./firmware/at32a403a_gpio.o
 .debug_aranges
                0x00000458       0x88 ./firmware/at32a403a_misc.o
 .debug_aranges
                0x000004e0       0x70 ./firmware/at32a403a_pwc.o
 .debug_aranges
                0x00000550      0x1d8 ./firmware/at32a403a_tmr.o
 .debug_aranges
                0x00000728      0x108 ./firmware/at32a403a_usart.o
 .debug_aranges
                0x00000830       0x28 ./cmsis/system_at32a403a.o
 .debug_aranges
                0x00000858       0x28 ./startup_at32a403a.o

.debug_ranges   0x00000000      0x7b8
 .debug_ranges  0x00000000       0x48 ./user/at32a403a_int.o
 .debug_ranges  0x00000048       0x58 ./user/at32a403a_wk_config.o
 .debug_ranges  0x000000a0       0x10 ./user/main.o
 .debug_ranges  0x000000b0      0x120 ./firmware/at32a403a_adc.o
 .debug_ranges  0x000001d0      0x130 ./firmware/at32a403a_crm.o
 .debug_ranges  0x00000300       0x50 ./firmware/at32a403a_exint.o
 .debug_ranges  0x00000350       0x98 ./firmware/at32a403a_gpio.o
 .debug_ranges  0x000003e8       0x78 ./firmware/at32a403a_misc.o
 .debug_ranges  0x00000460       0x60 ./firmware/at32a403a_pwc.o
 .debug_ranges  0x000004c0      0x1c8 ./firmware/at32a403a_tmr.o
 .debug_ranges  0x00000688       0xf8 ./firmware/at32a403a_usart.o
 .debug_ranges  0x00000780       0x18 ./cmsis/system_at32a403a.o
 .debug_ranges  0x00000798       0x20 ./startup_at32a403a.o

.debug_line     0x00000000     0x41f4
 .debug_line    0x00000000      0x147 ./user/at32a403a_int.o
 .debug_line    0x00000147      0x54a ./user/at32a403a_wk_config.o
 .debug_line    0x00000691      0x205 ./user/main.o
 .debug_line    0x00000896      0x7aa ./firmware/at32a403a_adc.o
 .debug_line    0x00001040      0x993 ./firmware/at32a403a_crm.o
 .debug_line    0x000019d3      0x389 ./firmware/at32a403a_exint.o
 .debug_line    0x00001d5c      0x5d2 ./firmware/at32a403a_gpio.o
 .debug_line    0x0000232e      0x494 ./firmware/at32a403a_misc.o
 .debug_line    0x000027c2      0x399 ./firmware/at32a403a_pwc.o
 .debug_line    0x00002b5b      0xc4e ./firmware/at32a403a_tmr.o
 .debug_line    0x000037a9      0x671 ./firmware/at32a403a_usart.o
 .debug_line    0x00003e1a      0x368 ./cmsis/system_at32a403a.o
 .debug_line    0x00004182       0x72 ./startup_at32a403a.o

.debug_str      0x00000000     0x7844
 .debug_str     0x00000000      0x24d ./user/at32a403a_int.o
                                0x281 (size before relaxing)
 .debug_str     0x0000024d     0x2486 ./user/at32a403a_wk_config.o
                               0x268d (size before relaxing)
 .debug_str     0x000026d3       0x73 ./user/main.o
                                0x7ed (size before relaxing)
 .debug_str     0x00002746      0xdfc ./firmware/at32a403a_adc.o
                               0x1910 (size before relaxing)
 .debug_str     0x00003542     0x1568 ./firmware/at32a403a_crm.o
                               0x2317 (size before relaxing)
 .debug_str     0x00004aaa      0x1f3 ./firmware/at32a403a_exint.o
                                0x4d5 (size before relaxing)
 .debug_str     0x00004c9d      0x764 ./firmware/at32a403a_gpio.o
                               0x1459 (size before relaxing)
 .debug_str     0x00005401      0x8d2 ./firmware/at32a403a_misc.o
                                0xb97 (size before relaxing)
 .debug_str     0x00005cd3      0x36b ./firmware/at32a403a_pwc.o
                                0xa23 (size before relaxing)
 .debug_str     0x0000603e     0x1151 ./firmware/at32a403a_tmr.o
                               0x20cb (size before relaxing)
 .debug_str     0x0000718f      0x5c9 ./firmware/at32a403a_usart.o
                                0xea9 (size before relaxing)
 .debug_str     0x00007758       0xc7 ./cmsis/system_at32a403a.o
                                0xbf5 (size before relaxing)
 .debug_str     0x0000781f       0x25 ./startup_at32a403a.o
                                 0x97 (size before relaxing)

.comment        0x00000000       0x49
 .comment       0x00000000       0x49 ./user/at32a403a_int.o
                                 0x4a (size before relaxing)
 .comment       0x00000049       0x4a ./user/at32a403a_wk_config.o
 .comment       0x00000049       0x4a ./user/main.o
 .comment       0x00000049       0x4a ./firmware/at32a403a_adc.o
 .comment       0x00000049       0x4a ./firmware/at32a403a_crm.o
 .comment       0x00000049       0x4a ./firmware/at32a403a_exint.o
 .comment       0x00000049       0x4a ./firmware/at32a403a_gpio.o
 .comment       0x00000049       0x4a ./firmware/at32a403a_misc.o
 .comment       0x00000049       0x4a ./firmware/at32a403a_pwc.o
 .comment       0x00000049       0x4a ./firmware/at32a403a_tmr.o
 .comment       0x00000049       0x4a ./firmware/at32a403a_usart.o
 .comment       0x00000049       0x4a ./cmsis/system_at32a403a.o

.debug_frame    0x00000000     0x23a8
 .debug_frame   0x00000000       0xf0 ./user/at32a403a_int.o
 .debug_frame   0x000000f0      0x15c ./user/at32a403a_wk_config.o
 .debug_frame   0x0000024c       0x30 ./user/main.o
 .debug_frame   0x0000027c      0x57c ./firmware/at32a403a_adc.o
 .debug_frame   0x000007f8      0x5b8 ./firmware/at32a403a_crm.o
 .debug_frame   0x00000db0      0x170 ./firmware/at32a403a_exint.o
 .debug_frame   0x00000f20      0x2d0 ./firmware/at32a403a_gpio.o
 .debug_frame   0x000011f0      0x210 ./firmware/at32a403a_misc.o
 .debug_frame   0x00001400      0x1ac ./firmware/at32a403a_pwc.o
 .debug_frame   0x000015ac      0x8c4 ./firmware/at32a403a_tmr.o
 .debug_frame   0x00001e70      0x4b8 ./firmware/at32a403a_usart.o
 .debug_frame   0x00002328       0x54 ./cmsis/system_at32a403a.o
 .debug_frame   0x0000237c       0x2c d:/at32ide/platform/tools/gcc-arm-none-eabi-10.3-2021.10/bin/../lib/gcc/arm-none-eabi/10.3.1/../../../../arm-none-eabi/lib/thumb/v7e-m+fp/hard\libg_nano.a(lib_a-init.o)
